:020000040800F2
:100000000806002001010008F51D0008971A0008E5
:10001000B51D0008FB07000897220008000000003B
:10002000000000000000000000000000A51E000805
:100030003308000800000000F71D0008271F000813
:100040001B0100081B0100081B0100081B01000820
:100050001B0100081B0100081B0100081B01000810
:100060001B0100081B0100081B0100081B01000800
:100070001B010008FD0700081B0100081B01000808
:100080001B0100081B0100081B0100081B010008E0
:100090001B0100081B0100081B0100081B010008D0
:1000A0001B0100081B0100081B0100081B010008C0
:1000B0001B0100081B0100081B0100081B010008B0
:1000C0001B0100081B0100081B0100081B010008A0
:1000D0001B0100081B0100081B0100082522000865
:1000E0001B0100081B0100081B010008DFF80CD0F1
:1000F00000F0E0FA00480047F93000080806002048
:100100000648804706480047FEE7FEE7FEE7FEE7B1
:10011000FEE7FEE7FEE7FEE7FEE7FEE7791F0008E1
:10012000ED000008202A04DB203A21FA02F0002129
:10013000704721FA02F3D040C2F1200291400843F7
:100140001946704740EA01039B0703D009E008C93C
:10015000121F08C0042AFAD203E011F8013B00F88C
:10016000013B521EF9D27047D2B201E000F8012BD8
:10017000491EFBD270470022F6E710B513460A4627
:1001800004461946FFF7F0FF204610BD421C10F848
:10019000011B0029FBD1801A704730B480EA0102AC
:1001A00002F0004530F0004221F0004013D090B141
:1001B000C30DD40DC2F31601C0F31600E41A41F4C6
:1001C000000140F400027D34914201D3641C00E040
:1001D0004900002C02DA30BC002070474FF40000C8
:1001E0000023914201D3891A034340084FEA410199
:1001F000F7D151B1914202D14FF0004105E002D256
:100200004FF0010101E06FF0010103EBC4502844FD
:1002100030BC00F05FB896230022114600F063B8AE
:1002200000F0004230F000400AD0C10D01F56071CD
:10023000C0F3160042EA0151C2084007114370475B
:1002400000200146704730B50B46014600202022B1
:10025000012409E021FA02F59D4205D303FA02F5D3
:10026000491B04FA02F52844151EA2F10102F1DC33
:1002700030BD2DE9F05F0546002092469B4688463A
:100280000646814640241BE0284641464746224612
:10029000FFF748FF53465A46C01A914110D3114602
:1002A0001846224600F018FA2D1A67EB01084F464F
:1002B00022460120002100F00FFA17EB00094E4101
:1002C000201EA4F10104DFDC484631462A4643469D
:1002D000BDE8F09F0029A8BF7047401C490008BF37
:1002E00020F00100704710B4B0FA80FC00FA0CF066
:1002F00050EA010404BF10BC704749B1CCF120049E
:1003000021FA04F411FA0CF118BF0121214308432A
:10031000A3EB0C01CB1D4FEA00614FEA102042BF56
:10032000002010BC704700EBC35010440029A4BF4C
:1003300010BC7047401C490008BF20F0010010BCF1
:1003400070472DE9FE4F804681EA0300C00F0C463E
:10035000009021F0004123F00045B8EB0200A941D4
:1003600005D24046214690461C460B46024623F0E5
:100370000040104347D0270DC7F30A00C3F30A51CA
:100380000290401A019040286BDAC3F3130040F446
:10039000801B0098924620B10023D2EB030A63EB46
:1003A0000B0B01985946C0F14002504600F094F9F9
:1003B00006460D4650465946019A00F09CF910EB4E
:1003C00008006141002487EA115284EAE7731A4366
:1003D00040D0009A62B3019A012A4FEA075215DC15
:1003E000001B61EB02014FF0004202EA0752CDE927
:1003F0000042001C41F5801132462B4600F09CF96A
:1004000003B0BDE8F08F40462146F9E7001B61EBE1
:100410000201001C41F5801300185B412018A2F571
:10042000001747EB030140EAD570B6196D4111E0A2
:100430006D084FEA360645EAC0754FEA0752001BC1
:1004400061EB0201001C41F5801149084FEA3000C0
:100450000019514132462B4603B0BDE8F04F00F081
:100460005CB90098012240000023D0EB020263EB4C
:10047000E073009821464FEAE074B8EB000061EBAE
:100480000401E9E783F000435BE781F0004158E7AE
:100490002DE9FE4F81EA030404F0004421F00041FD
:1004A00000944FF0000B23F0004350EA01045ED0AB
:1004B00052EA03045BD0C3F30A54C1F30A552C4437
:1004C000A4F2F3340194A0FB0254C1F3130141F4EC
:1004D0008011C3F3130343F4801301FB024400FBB8
:1004E000034E840A970A44EA815447EA8357A4FBDF
:1004F000076802958D0A05FB07854FEA932C04FBDC
:100500000C542705029D4FEA065847EA1637B5EB0B
:1005100008056EEB070C870E920E47EA811742EA38
:100520008312A7FB0201B6EB0B0164EB00042B0D59
:1005300043EA0C335E1844EB1C50DA465146E7FBA5
:100540000201C5F313044FEA0B3343EA14534FEA95
:100550000432019C43EA0603A4F10C040294009CBB
:10056000CDE900B400F0E8F803B0BDE8F08F00205A
:100570000146F9E72DE9F04D81EA030404F0004B50
:1005800021F0004514464FF0000A23F0004150EAE4
:10059000050220D054EA01021DD0C5F30A570246D5
:1005A000C5F31303C1F31300C1F30A5640F48015D9
:1005B00043F48013A7EB0608101BD64608F2FD385B
:1005C00073EB050002D308F1010801E092185B41CA
:1005D000B8F1000F03DA00200146BDE8F08D0020DD
:1005E0004FF48011064684460EE0171B73EB050797
:1005F00005D3121B63EB050306434CEA010C4908C3
:100600004FEA300092185B4150EA0107EDD152EAFF
:10061000030012D082EA040083EA0501084305D0F2
:10062000101BAB4106D20122002306E000224FF04E
:10063000004302E06FF0010253101AEB06004CEB8E
:10064000085110EB0A0041EB0B01BDE8F04D00F042
:1006500064B8C1F30A52C1F3130140F2FF3341F40D
:1006600080119A4202DA00200146704740F233437B
:100670009A42A2F2334202DC5242FFF753BD00F02D
:100680002BB8000030B5041E71F1000404DB4FF0FC
:100690000044404264EB0101141E73F1000405DBC9
:1006A0001C464FF00043524263EB0403994208BFDB
:1006B000904230BD064C074D06E0E06840F0010373
:1006C00094E8070098471034AC42F6D3FFF712FDC8
:1006D00088320008A8320008202A04DB203A00FAF9
:1006E00002F1002070479140C2F1200320FA03F389
:1006F000194390407047202A06DBCB17203A41FA75
:1007000002F043EAE07306E041FA02F3D040C2F19E
:100710002002914008431946704710B5141E73F12A
:10072000000408DA401C41F1000192185B411A43B1
:1007300001D120F0010010BD2DE9F04D92469B46FD
:1007400011B1B1FA81F202E0B0FA80F220329046A3
:10075000FFF7C2FF04460F4640EA0A0041EA0B01D8
:1007600053465A46084313D0114653EA010019D0A4
:10077000C8F140025046FFF7D5FC05460E465046EC
:1007800059464246FFF7A8FF084305D0012004E080
:1007900020463946BDE8F08D0020054346EAE07664
:1007A0002C4337430A986305E40AA0EB08000022B3
:1007B000FD0A44EA47540A3002D500200146E9E721
:1007C000010510196941DDE9084500196941BDE8D5
:1007D000F04DA2E770B50D46044601F093F92046AE
:1007E00001F05AF901F0DEF9284601F055F901F05F
:1007F000D9F9BDE8704001F0ADB9FEE7014800F05D
:10080000FFB800006C01002030B590F84050012482
:10081000AC40C56B6C60046863604368102B036870
:1008200003D099600068C26030BD9A600068C16002
:1008300030BD704710B5094C68202178FFF7CAFF1A
:1008400061786A20FFF7C6FFA1786C20FFF7C2FF2E
:10085000E178BDE810406E20FFF7BCBF1400002017
:100860004FF47A71B0FBF1F20F4930B48B5C0A1F80
:1008700013706423B0FBF3F40A23B4FBF3F503FB1A
:1008800015440C5D5470B0FBF3F4B4FBF3F503FBBB
:1008900015440C5D9470B0FBF3F403FB1400085C8A
:1008A000D07030BCFFF7C6BF180000204FF47A713B
:1008B000B0FBF1F1124A30B4535C6424B0FBF4F4A1
:1008C000111F0B700A23B4FBF3F503FB1544A0B111
:1008D00001F10F052C5D4C70B0FBF3F4B4FBF3F5A4
:1008E00003FB1544145D8C70B0FBF3F403FB1400A0
:1008F000105CC87030BCFFF79DBF145DEBE70000D3
:10090000180000200548827A011F0A70827A4A7016
:10091000827A8A70807AC870FFF78CBF1800002036
:10092000704710B590F821100022022905D004214B
:10093000816380F82020012010BD01680B6823F03E
:100940000E030B6001680B6823F001030B6090F845
:100950004030C46B012101FA03F3636080F8211079
:1009600080F82020104610BD10B590F8211000240A
:10097000022903D00421816301243DE001680A6853
:1009800022F00E020A6001680A6822F001020A6081
:100990001A4A0168914201D1012121E0174A14321B
:1009A000914201D110211BE0144A2832914201D119
:1009B000891515E0114A3C32914201D189140FE0AA
:1009C0000E4A5032914202D14FF4803108E00B4A76
:1009D0006432914202D14FF4801101E04FF08071F6
:1009E000064A083A5160012180F82110002180F860
:1009F0002010416B01B18847204610BD080002401D
:100A00002DE9F05FC16B0C6801680B68D0F840C03D
:100A1000042202FA0CF2494DDFF824A1494E4A4F54
:100A2000DFF828B1DFF828E122422CD05A072AD576
:100A30000A68920603D40A6822F004020A60016878
:100A4000A94201D1042219E0514501D1402215E00B
:100A5000B14202D14FF4806210E0B94202D14FF4AA
:100A600080420BE0594502D14FF4802206E07145E7
:100A700002D14FF4800201E04FF080622F49083923
:100A80004A60C16A3BE04FF0020808FA0CF818EA25
:100A9000040F4FF000094FF0010235D05FEA837870
:100AA00032D50B689B0605D40B6823F00A030B6054
:100AB00080F821200168A94201D1022219E05145A4
:100AC00001D1202215E0B14202D14FF4007210E0B2
:100AD000B94202D14FF400520BE0594502D14FF414
:100AE000003206E0714502D14FF4001201E04FF0F0
:100AF0000072124908394A6080F82090816A002902
:100B00001AD0BDE8F05F0847082505FA0CF5254224
:100B100012D01B0710D50B6823F00E030B6090F862
:100B20004010C36B02FA01F15960826380F8212002
:100B300080F82090016BE2E7BDE8F09F08000240DA
:100B40001C000240300002404400024058000240B5
:100B50006C00024030B528B308C813491422194468
:100B6000B1FBF2F18900C163104981630221417731
:100B70001A6843F6F0718A43D0E900142143D0E9A2
:100B800002452C432143046921434469214384697C
:100B9000214311431960002141630122427701770B
:100BA000084630BD012030BDF8FFFDBF0000024007
:100BB00070B5044690F82000002501280CD00120D3
:100BC00084F8200094F821600020012E06D084F8DB
:100BD00020000225284670BD022070BD022684F840
:100BE0002160A0632068066826F0010606602046A2
:100BF000FFF70AFEE06A00282068016802D041F091
:100C00000E0106E021F0040101602068016841F056
:100C10000A0101602068016841F001010160D9E723
:100C200070B5044600F008F90546601C02D004487F
:100C30000078044400F000F9401BA042FAD370BDD4
:100C4000040000202DE9F84FDFF8B891002409F1E5
:100C5000040A0AF1040B23460F270BF1040EC9E026
:100C60000125A5402A40AA427DD1674ED1F804C093
:100C7000ACEB0608B44532D014DCBCF1030F3AD01B
:100C800009DCBCF1000F2AD0BCF1010F1CD0BCF173
:100C9000020F31D11DE0BCF1110F17D0BCF1120FC2
:100CA0002AD119E0B8F5881F19D006DCB8F5803FC5
:100CB00015D0B8F5801F1FD111E0B8F5001F0ED078
:100CC000B8F5041F18D10AE0CB6815E0CB681B1DEE
:100CD00012E0CB6808330FE0CB680C330CE08B6874
:100CE0002BB1012B4FF0080303D0456104E004232E
:100CF00002E0056100E00023FF2A01D8064601E07A
:100D000000F104064FEA840501D9A5F12005D6F8C3
:100D1000008007FA05FC28EA0C0803FA05F548EA02
:100D20000508C6F800804D68ED0062D5374DAE6904
:100D300046F00106AE61AD6924F0030605F0010539
:100D40000095334D06EB050CDCF80850A607360F6E
:100D500007FA06F825EA0805DFF8B880404503D110
:100D60004FF0000817E044E0DFF8AC80404502D1C6
:100D70004FF001080FE0DFF8A480404502D14FF0AA
:100D8000020808E0DFF89880404502D14FF00308E0
:100D900001E04FF0040808FA06F848EA0508CCF824
:100DA00008804D68D9F80060ED034D4601D5164323
:100DB00000E096432E604D68DAF80060AD035546BA
:100DC00001D5164300E096432E604D68DBF80060C5
:100DD000ED025D4601D5164300E096432E604D6856
:100DE000DEF80060AD02754601D5164300E096437B
:100DF0002E60641C0D682A46E5407FF431AFBDE8E3
:100E0000F88F0000000401400000111000100240A3
:100E10000000014000080140000C014000100140AA
:100E2000001401408068084000D0012070470AB1DA
:100E3000016170470904FBE70148806870470000C2
:100E40000400002070B5040025D094F83D00002572
:100E500020B984F83C50204600F0B8F8242084F8EB
:100E60003D002068016821F00101016020680168EF
:100E700041F4004101602068016821F400410160F3
:100E800000F004FA4D4A6168914201D84C4900E0F3
:100E90004C49884201D2012070BD4B492368B0FB08
:100EA000F1F15E6826F03F060E435E606368934290
:100EB00006D94FF4967359434FF47A73B1FBF3F1AB
:100EC0002368491C1E6A26F03F0631431962616897
:100ED000914210D84900401EB0FBF1F2521CC2F3FF
:100EE0000B02042A01D2042022E0B0FBF1F0401CE6
:100EF000C0F30B001CE0A268F2B301EBC10303EBEB
:100F00000116431EB3FBF6F35B1C43F480431B0541
:100F100049D092B301EBC10202EB0111401EB0FBBC
:100F2000F1F0401CC0F30B0040F4804040F400405E
:100F30002168CA694CF6FF739A431043C861D4E92B
:100F4000071001432068026822F0C00211430160CB
:100F5000D4E9030101432068826848F2FF339A43D1
:100F600011438160D4E9050108432168CA6822F071
:100F7000FF021043C86001E00EE016E0206801683F
:100F800041F0010101602564202084F83D002563C3
:100F900084F83E50002070BD01EB4106431EB3FBB8
:100FA000F6F35B1CB3E70120C2E701EB4101401EF1
:100FB000B0FBF1F0401CC0F30B00B7E7A0860100C6
:100FC00080841E0000093D0040420F0010B586B02D
:100FD0000021009101910291039100680F4988421C
:100FE0001AD10F4CA06940F00800A061A0696946C1
:100FF00000F008000490C02000901220019003200F
:1010000003900848FFF71EFEE06940F40010E0611D
:10101000E06900F40010049006B010BD00540040D8
:1010200000100240000C014002488168027811441F
:101030008160704704000020074810B5016841F046
:1010400010010160032000F079F8002000F006F89C
:1010500000F024F8002010BD0020024070B50D4DB6
:1010600004464FF47A712878B1FBF0F00A49096818
:10107000B1FBF0F000F0FCFA48B9102C07D20022C6
:101080002146501E00F03AF800206C6070BD01202F
:1010900070BD000004000020100000200E4808B5BC
:1010A000816941F001018161816901F001010091D3
:1010B000C16941F08051C161C06900F08050009069
:1010C000052000F03BF80548416821F0E06141F05F
:1010D0000071416008BD00000010024000000140A6
:1010E000002809DB00F01F02012191404009800027
:1010F00000F1E020C0F8001170470000F0B40E4B82
:101100001B680C46C3F30223C3F10705042D00D965
:101110000425191D072901D2002300E0DB1E01264A
:1011200006FA05F1491E214099409E40761E164060
:101130003143F0BC01F004BB0CED00E0064900F0C7
:10114000070208684FF6FF03184040EA0220034AEE
:1011500010430860704700000CED00E00000FA0545
:101160002DE9F0470F46050061D0434E306800F08E
:101170000700B84209D2306820F0070038433060D9
:10118000306800F00700B84251D128683B4C810715
:1011900012D5400703D5606840F4E06060602878AD
:1011A000000703D5606840F4605060606068A9681B
:1011B00020F0F000084360602878C00728D06868F5
:1011C000012810D02168022810D0890700292EDAC2
:1011D000616821F0030101436160FFF72DFE804645
:1011E00041F288390DE021688903EFE78901EDE7D5
:1011F000FFF722FEA0EB0801494502D90320BDE814
:10120000F0876068696800F00C00B0EB810FEFD1E7
:10121000306800F00700B8420BD9306820F00700B2
:1012200038433060306800F00700B84201D0012038
:10123000E5E72878400705D56068E96820F4E060B4
:10124000084360602878000706D56068296920F4A3
:10125000605040EAC100606000F038F86168084AF8
:10126000C1F30311515CC840064908600648006894
:10127000FFF7F4FE0020C2E7002002400010024009
:1012800070320008100000200800002004480549C2
:1012900000684968044AC1F30221515CC8407047A4
:1012A0001000002000100240803200080448054968
:1012B00000684968044AC1F3C221515CC8407047C4
:1012C00010000020001002408032000812A185B0FA
:1012D0000FC98DE80F0014A0144A006804905168EB
:1012E000134801F00C03042B10D0082B0ED1C1F3CE
:1012F0008343C9031DF803000AD5516804AAC1F34A
:101300004041515C0A4A5043B0FBF1F005B07047D0
:1013100008494843FAE700000203040506070809E4
:101320000A0B0C0D0E0F10100102000000100240FD
:1013300000127A0000093D002DE9F84F040070D03A
:101340002078C04DC00749D06868C0F381000128EB
:1013500007D06868C0F38100022809D16868C0031B
:1013600006D52868800339D560680028E7D035E0C5
:101370006068B0F5803F0BD010B1B0F5A02F11D050
:10138000286820F480302860286820F4802002E05B
:10139000286840F480302860606890B1FFF74CFD09
:1013A00006460AE0286840F480202860F0E700BF85
:1013B000FFF742FD801B642873D828688003F7D5A7
:1013C0000CE0FFF739FD064605E000BFFFF734FDEE
:1013D000801B6428F0D828688003F7D420789A4EC0
:1013E00080074FF001094FF0000839D5686810F008
:1013F0000C0F07D06868C0F38100022809D1686823
:10140000C00306D42868800714D52069012808D1B4
:1014100010E02069B0B1C6F80090FFF70DFD074657
:1014200005E00AE1FFF708FDC01B0228C4D82868C0
:101430008007F7D52868616920F0F80040EAC1000C
:1014400028600DE0C6F80080FFF7F6FC074604E0D0
:10145000FFF7F2FCC01B022823D828688007F7D4C6
:10146000207800072CD57948A169D9B1C0F800903F
:10147000FFF7E2FC074604E0FFF7DEFCC01B022892
:101480000FD8686A8007F7D571484FF4FA510068A1
:10149000B0FBF1F0009000BF0098411E0091FAD21D
:1014A0000EE080E0C0F80080FFF7C6FC074604E0CD
:1014B000FFF7C2FCC01B022875D8686A8007F7D402
:1014C0002078400760D5E8690027C00008D4E869A3
:1014D00040F08050E861E869012700F080500090FA
:1014E0005C480168C90513D40168834641F48071E2
:1014F0000160FFF7A1FC824606E000BFFFF79CFCFD
:10150000A0EB0A0064284ED8DBF80000C005F5D532
:10151000E06801280AD008B1052813D0286A20F015
:1015200001002862286A20F0040002E0286A40F0E6
:1015300001002862E06841F2883B98B1FFF77CFC2B
:1015400082460BE0286A40F004002862EEE700BF04
:10155000FFF772FCA0EB0A0159455AD8286A8007A8
:10156000F6D50CE0FFF768FC824605E0FFF764FC67
:10157000A0EB0A0159454CD8286A8007F6D41FB160
:10158000E86920F08050E861E06988B36968C1F3D8
:101590008101022944D00228C6F8608004D0FFF7F8
:1015A0004BFC044638E034E0FFF746FC074604E015
:1015B000FFF742FCC01B02282BD828688001F7D413
:1015C000206AB0F5803F05D16868A16820F400303A
:1015D00008436860D4E908010843696821F474117C
:1015E00008436860C6F86090FFF726FC044606E0F2
:1015F00025E000BFFFF720FC001B022809D828685F
:101600008001F7D51BE000BFFFF716FC001B022886
:1016100002D90320BDE8F88F28688001F4D40EE0D9
:101620000128F7D06868226A00F48031914204D121
:10163000616A00F47010884201D00120EAE70020BE
:10164000E8E70000001002400000424280044242ED
:1016500010000020007000404FF0E02104280869CD
:1016600003D020F004000861704740F00400FAE75E
:1016700010B5401EB0F1807F01D3012010BD4FF0A6
:10168000E02460610F21601701F05AF80020A0618A
:1016900007202061002010BD10B504460068416994
:1016A00094F83920C1F3C011212A0BD151B14169FD
:1016B00021F080014161206B08B1FFF732F920462B
:1016C00000F0EBFC2068416994F83A20C1F38011E6
:1016D000222A0BD151B1416921F040014161606B77
:1016E00008B1FFF71EF9204600F0C9FC002010BD2C
:1016F0007047000070B5026804461068D1685369ED
:1017000010F00F0F52D003F0010501F490762E4334
:101710005FD0C20705D0CA0503D5E26B42F00102D3
:10172000E263420705D5DA0703D0E26B42F002021A
:10173000E263820705D5DA0703D0E26B42F00402C8
:10174000E263020707D501F020022A4303D0E26BCF
:1017500042F00802E263E26B002A33D0800604D52F
:10176000880602D5204600F0A1FC20684069E16BA4
:10177000C0F38010090700D428B3204600F07FFC96
:101780002068416949061AD5416921F0400141614B
:10179000606BA0B12D494163606BFFF7E5F800284D
:1017A00010D0606B416BBDE870400847830610D5D0
:1017B0008B060ED52046BDE8704000F077BC204671
:1017C000FFF796FF70BD2046FFF792FF0020E06311
:1017D00070BD03062BD50B0629D594F839002128B6
:1017E000F6D1A068B0F5805F01D12069B0B1206A60
:1017F000411C2162216800784860E08C401E000492
:10180000000CE084E4D12068C16821F08001C1604F
:101810002068C16841F04001C16070BD206A008845
:10182000C0F308005060206A801C2062E5E7400693
:10183000F3D54806F1D5D168204621F04001D160AA
:10184000202184F8391000F025F970BDDF1F000851
:1018500070B5040004D094F83900002510B106E0FA
:10186000012070BD84F83850204600F023F8242071
:1018700084F839002068C16821F40051C160204615
:1018800000F05AFC2068016921F490410161206850
:10189000416921F02A0141612068C16841F4005189
:1018A000C160E563202084F8390084F83A00002004
:1018B00070BD0000F0B585B000240094019402943E
:1018C0000394054602684548DFF80CC10221032352
:1018D000434E071562451AD1826942F48042826103
:1018E000826902F480420492826942F004028261B9
:1018F0008069039300F0040004900802CDE9000120
:1019000069463046FFF79EF9CDE900741EE0DFF826
:10191000D4C0624521D1C26942F40032C261C269B9
:1019200002F400320492826942F00402826180690A
:10193000039300F0040004900420CDE900016946FF
:101940003046FFF77FF90820CDE9000469463046AC
:101950000294FFF777F905B0F0BD234EB242FAD1F9
:10196000C26942F48022C261C26902F480220492F8
:10197000826942F0080282618069CDE9007100F05D
:101980000800CDE90330194E69463046FFF75AF991
:10199000F014CDE90004694630460294FFF752F98D
:1019A000144E1348C6E900048020C6E902403461A1
:1019B0007461B4613046F461FFF7CCF808B1FEF70A
:1019C000AFFF6E630022012127207562FFF796FBAF
:1019D0002720FFF785FBBEE70038014000100240DA
:1019E000000801400044004000480040000C014055
:1019F000300002406C010020F8B5044690F83A002F
:101A000020283CD1C1B3BAB394F83800012836D0AD
:101A1000012084F83800A162A2850025E563222018
:101A200084F83A00636B17489862636B1648D86273
:101A3000636B16481863606B134645630846666B14
:101A4000216802463046091DFFF7B2F82068016898
:101A50004168009184F83850C16841F48071C160D8
:101A60002068416941F0010141612068416941F00C
:101A7000400141610020F8BDFFE70120FBE70220A3
:101A8000F9E700003920000875200008EF1F000862
:101A9000704770477047FEE770B5194E05463046EF
:101AA000316821F070413160316841F0405131605E
:101AB00000224021FFF7BBF90024280601D50122AE
:101AC00000E0002280213046FFF7B1F96806050EDC
:101AD000022001F0CBFA012240213046FFF7A7F99E
:101AE000022001F0C3FA002240213046FFF79FF99F
:101AF000022001F0BBFA641CE4B2082CDDD370BDF7
:101B0000000C014010B5124C206820F0704020609D
:101B1000206840F040502060012280212046FFF7DD
:101B200086F9012240212046FFF781F9042001F0C7
:101B30009DFA002280212046FFF779F9042001F068
:101B400095FA20460022BDE810404021FFF76FB90A
:101B5000000C014010B5124C206820F0704020604D
:101B6000206840F040502060002240212046FFF7CE
:101B70005EF9002280212046FFF759F9042001F088
:101B800075FA012240212046FFF751F901228021F8
:101B90002046FFF74CF9BDE81040042001F066BA7A
:101BA000000C014070B5184C0025206820F07040F2
:101BB0002060206840F00040206001228021204603
:101BC000FFF735F9012001F051FA012240212046AA
:101BD000FFF72DF9012001F049FA07E06D1CEDB285
:101BE000FA2D03D9FFF7B6FF012070BD80212046F2
:101BF000FFF718F90028F1D1002240212046FFF715
:101C000016F9002070BD0000000C0140094808B51D
:101C1000416941F0010141614069002200F0010089
:101C2000009011460D20FFF769FABDE808400D202D
:101C3000FFF756BA0010024070B586B00024204865
:101C40000094019402940394816941F02001816120
:101C5000816901F020010491816941F004018161F1
:101C6000816901F004010491816941F008018161F9
:101C70008069144E00F008004FF4004504900022E3
:101C800029463046FFF7D3F81020CDE90004694615
:101C90000D480294FEF7D6FF6810CDE900046946AE
:101CA00030460294FEF7CEFF01200095CDE90104F5
:101CB0000220039069463046FEF7C4FF06B070BDAF
:101CC00000100240000C0140000801400D4810B512
:101CD0000B4901600C49416000214FF48042816052
:101CE000C0E9031241618161C1610162FFF7AAF895
:101CF000002803D0BDE81040FEF712BE10BD000062
:101D00000054004058000020A08601000C4810B587
:101D10000A4901604FF416514160002181600C2294
:101D2000C160C0E904128161C161FFF791FD002823
:101D300003D0BDE81040FEF7F3BD10BD00380140F0
:101D4000AC0000200C4810B50A4901604FF4165150
:101D50004160002181600C22C160C0E904128161F0
:101D6000C161FFF775FD002803D0BDE81040FEF704
:101D7000D7BD10BD00440040EC0000200C4810B559
:101D80000A4901604FF416514160002181600C2224
:101D9000C160C0E904128161C161FFF759FD0028EB
:101DA00003D0BDE81040FEF7BBBD10BD00480040A9
:101DB0002C010020FEE7000000B585B00020029055
:101DC0000A48816941F0080181618069694600F033
:101DD00008000490C020009001200190032003908F
:101DE0000348FEF72FFF05B000BD000000100240C1
:101DF000000C0140704770472DE9F041284C4FF42A
:101E000080480025012241462046FFF710F84FF494
:101E10000046002231462046FFF709F831462046A9
:101E2000FFF700F80028F9D1012001F01FF9002781
:101E3000012231462046FEF7FAFF012001F016F993
:101E4000002231462046FEF7F2FF41462046FEF7CB
:101E5000E9FF00B96D0041462046FEF7E3FF012887
:101E600002D1680040F00105012001F0FFF87F1C5D
:101E7000FFB2182FDCD3012231462046FEF7D7FFF0
:101E800085F40005012001F0F1F8002231462046DA
:101E9000FEF7CDFF012001F0E9F82846BDE8F0810A
:101EA000000C014070472DE9F043074600258DB036
:101EB000914688462E460846FEF768F9C4B2FD20D2
:101EC0008DF8000000208DF80100E01C8DF8020064
:101ED00001208DF8030000EB07108DF804006F4619
:101EE000B85D761C4540052EFAD3002003E018F8B3
:101EF00000104D40401CA042F9D322464146781DB7
:101F0000FEF720F9381904F106044571B9F1020F02
:101F1000E1B2684604D000F0AFF90DB0BDE8F0833F
:101F200000F070F9F9E7FFF77FB830B58FB02821DE
:101F30006846FEF720F914210AA8FEF71CF90121D2
:101F40000804CDE900100024029402250491CDE993
:101F500007504FF4E01009906846FFF7EDF90F20A5
:101F6000CDE90A056802CDE90C4002210AA80E94C9
:101F7000FFF7F6F80FB030BD7047000010B54820ED
:101F800001F05CF8642001F063F80A4C0122402162
:101F90002046FEF74CFF012280212046FEF747FF36
:101FA000642001F055F87121BDE81040482000F090
:101FB00003B80000000C014070B50D460446FFF761
:101FC000A1FD2046FFF768FDFFF7ECFD2846FFF76F
:101FD00063FDFFF7E7FDBDE87040FFF7BBBD10B53F
:101FE000406A0021C185C184FFF782FB10BD70B536
:101FF000446A2068406994F83910C0F3C010002585
:10200000212904D118B1E584204600F046F8206863
:10201000406994F83A10C0F38010222904D118B115
:10202000E585204600F02BF8E06B40F01000E063FF
:102030002046FFF75DFB70BD10B50146406A096898
:102040000968890613D40021C1850168CA6822F491
:102050008072CA6001684A6922F001024A6101681F
:102060004A6922F040024A61202180F83A10FFF7C5
:102070000FFD10BD10B5406AFFF70BFD10BD0168E4
:10208000CA6822F49072CA6001684A6922F00102AB
:102090004A61202180F83A1070470168CA6822F02E
:1020A000C002CA60202180F83910704710B590F83E
:1020B0003A10222901D0022010BD82684FF48053CB
:1020C0009A4201D1016921B1816A9A421BD04AB179
:1020D0000AE00268816A5268C2F308020A80816AD3
:1020E000891C08E0026972B10268526802F07F023E
:1020F0000A70816A491C8162C18D491E0904090C5C
:10210000C18503D016E002685268F1E70168CA6829
:1021100022F02002CA600168CA6822F48072CA6094
:1021200001684A6922F001024A61202180F83A10D0
:10213000FFF7AEFC002010BD70B5044600680169D1
:10214000E26821F44051114301612169A06808430C
:10215000616908432168CA6841F20C639A430243EB
:10216000CA6020684169A26921F44071114341614C
:102170001E492068884202D1FFF798F801E0FFF776
:1021800085F800EBC00101EB00126068642180005B
:10219000B2FBF0F3B3FBF1F36FF018067343B2FB3D
:1021A000F0F5B2FBF0F605EB8305322303EB0515E2
:1021B000B5FBF1F5B6FBF1F605F0F00505EB0615FC
:1021C000B2FBF0F6B2FBF0F0B0FBF1F06FF01802EA
:1021D000504306EB800003EB0010B0FBF1F02168E8
:1021E00000F00F002844886070BD000000380140F6
:1021F00003490A685206FCD50149091D0860704769
:102200000044004030B50D460446002306E000BF00
:1022100014F8010BFFF7ECFF5B1CDBB2AB42F7D30A
:1022200030BD00000C4810B50068016840680A48DD
:10223000FFF732FA094800F03FFF09494FF4401018
:1022400048600A2205490448FFF7D6FBBDE8104064
:102250000148FFF74FBA00002C010020B001002018
:102260000000024003490A685206FCD50149091DD5
:10227000086070470048004030B50D460446002312
:1022800006E000BF14F8010BFFF7ECFF5B1CDBB2AC
:10229000AB42F7D330BDFEE72DE9F84F0026F34CF3
:1022A00037464FF47A7500BFFFF7A6FD2062E1685C
:1022B00088420BD9401AA84208D9642148432169B1
:1022C000B0FBF1F0E1690844E06100E0E7616420FF
:1022D000FEF7A6FC761C052EE6DBE0690521B0FBC7
:1022E000F1F1E16109B167800DE0A78060881428F1
:1022F00001D2401C00E0142080B260800A2802D97C
:10230000FEF700FBA4E12078DFF860A3DFF860931C
:102310000AF1060A012807D00A22491DB1FBF2F191
:1023200001EB810149000EE09AF8002002EBC203A4
:1023300003EB0212B1EB820F05D3B1FBF5F305FB02
:10234000131101EBC201A288A04649F82210A1880E
:10235000052902D259F8210072E159F82120002AFA
:10236000D0D00529CED14FF4FA7640F2DC5B0228BA
:1023700005D00328D9F814007ED0400843E1D9F8ED
:102380001400400800F09AF9B8F8040059F8200049
:1023900041089AF80100DFF8DCA200EBC00202EB72
:1023A0000010B1EB800F43D90322B3A10020FFF747
:1023B0007AFD3046FEF734FCFEF7A4FA3046FEF70D
:1023C0002FFCB8F80400454659F82000400800F0FA
:1023D00075F93046FEF724FCFEF794FA3046FEF716
:1023E0001FFCA88859F82000400800F067F9A88869
:1023F00059F820004008FDF70EFF5146FDF7CDFECD
:10240000FDF70EFF9FA20092024699480B469FA13E
:10241000283000F081F99649032228310020FFF787
:1024200042FD40F6B830FEF7FBFB032299A1E2E043
:10243000022291A10020FFF736FD3046FEF7F0FBA7
:10244000FEF760FA3046FEF7EBFBB8F804004546AD
:1024500059F82000400800F031F93046FEF7E0FB63
:10246000FEF750FA3046FEF7DBFBA88859F820004B
:10247000400800F023F900E01CE0A88859F820008B
:102480004008FDF7C8FE5146FDF787FEFDF7C8FE80
:102490007CA20092024676480B467CA1283000F0D0
:1024A0003BF97349022228310020FFF7FCFC40F67B
:1024B000B830A4E09AF80220410802EBC20303EB13
:1024C0000212B1EB820F7CD9B0FBF5F2CA4605FBD4
:1024D00012034FF06409B0FBF5F1B3FBF9F21144BC
:1024E00001EBC10202EB011100EB4100400800F0DA
:1024F000E5F8022260A10020FFF7D5FC03225EA1CF
:102500000020FFF7D0FC3046FEF78AFBFEF7FAF911
:102510003046FEF785FBB8F804105AF82100B0FBEE
:10252000F5F205FB1203B0FBF5F1B3FBF9F2114430
:1025300001EBC10202EB011100EB4100400800F089
:10254000BDF83046FEF76CFBFEF7DCF93046FEF7CF
:1025500067FBB8F804105AF82100B0FBF5F105FB51
:102560001103B0FBF5F2B3FBF9F10A4402EBC2012F
:1025700001EB021100EB4100400800F09FF8B8F8B1
:1025800004105AF82100B0FBF5F105FB1103B0FB74
:10259000F5F2B3FBF9F1114401EBC10202EB0111B9
:1025A00000EB4100FDF737FE3D49FDF7F6FDFDF775
:1025B00037FE34A2009202462D480B4633A1283044
:1025C00000E01FE000F0A8F829490222283100208D
:1025D000FFF769FC2649032228310020FFF763FC3E
:1025E00040F6B830FEF71CFB02222EA10020FFF7B8
:1025F0005AFC03222BA10020FFF755FC5846FEF79A
:102600000FFB20E0084600F059F83046FEF708FBC3
:10261000FEF778F93046FEF703FBB8F8040059F8E6
:102620002000400800F04AF83046FEF7F9FAFEF7BD
:1026300069F93046FEF7F4FAB8F8040059F82000BA
:10264000400800F03BF8B8F80400401CA8F804006B
:10265000216AE0680A1A15A000F04EF815A0E16999
:1026600000F04AF8E761BDE8F88F00003400002070
:10267000BC0100200000C842C4FAB5C4CCE5D6D8DD
:10268000CAC70000C7A7BFCB00000000252E3266D6
:1026900025730000D7A2D2E2BCF5B7CA0000000043
:1026A00000004843C4E3D5E6C5D6000025640925EB
:1026B0006409000025640D0A0000000080B2FEF7E6
:1026C000F5B8000070B50B4C002500BFFFF794FB78
:1026D000A0616169084460616420FEF7A1FA6D1C85
:1026E0000A2DF3DB60690A21B0FBF1F0E060002005
:1026F000606170BD340000200FB4054B10B503A914
:10270000044A029800F0FEF810BC5DF814FB0000CB
:10271000A1300008000000200FB4084B10B504A938
:1027200002AA039800F0EEF8044602A9002000F087
:1027300080FC204610BC5DF814FB0000333000081C
:102740000907090E002804DB00F1E02080F80014DE
:10275000704700F00F0000F1E02080F8141D704772
:1027600002E008C8121F08C1002AFAD1704770475A
:10277000002001E001C1121F002AFBD170470000B8
:102780002DE9FF5F82B00021DDE90430020DDDF8A4
:1027900040B0034318D044F61050A2F2FF32424337
:1027A0001514119801281FD0A5EB0B00401C5FEAFF
:1027B000000A4FF000064E4FDFF83891B046504601
:1027C00015D5CAF1000413E0119801244AA3012889
:1027D00001D16FEA0B010298119AC0E90031C0E9FA
:1027E000024206B0BDE8F09FCBF10000DFE70446EF
:1027F0000021404A491842EB0450CDE9001012E094
:10280000E00707D032463B4640464946FDF740FECA
:102810008046894632463B4610461946FDF738FE4B
:1028200006460F466410002CEAD1DDE90401DDE91B
:102830000023BAF1000F06DAFDF72AFE42464B46A6
:10284000FDF726FE05E0FDF795FE42464B46FDF7F7
:1028500091FE04460E460022284BFDF713FF03D8D5
:102860004FF0FF30014607E00022254B204631465D
:10287000FDF767FDFDF7EDFE102409E0002C0ADBF3
:102880000A220023FDF7F5FC039B30321A55641E23
:1028900050EA0102F2D1641C039AC4F111031444FA
:1028A000119A012A03D0012208430DD10AE00843FE
:1028B00004D000204FF0110B119072E7A3EB0B0531
:1028C0006D1E0DE05B4504DD4FF0000205F10105D2
:1028D00004E003DA4FF00002A5F10105002AECD074
:1028E00002981199C0E90231C0E9004579E700007A
:1028F000000014400000F03F300000000000F043F2
:102900000000E03F2DE9FF4F95B09B468946064603
:1029100000250FE2252877D100242746F84A012117
:10292000059400E0044316F8013F203B01FA03F050
:102930001042F7D130782A2811D06FF02F03307869
:10294000A0F13002092A16D8059A44F0020402EBDD
:10295000820203EB42021044761C0590EFE759F81F
:10296000042B0592002A03DA504244F400540590E7
:1029700044F00204761C30782E2816D116F8010F88
:1029800044F004042A280DD06FF02F023078A0F113
:102990003003092B09D807EB870302EB4303C71861
:1029A000761CF3E759F8047B761C30786C280FD03E
:1029B00006DC4C2817D068280DD06A2814D104E012
:1029C000742810D07A280FD10DE044F400140AE0E6
:1029D00044F4801401E044F440147278824202D13D
:1029E00004F58014761C761C307866280BD013DC36
:1029F000582877D009DC002875D04528F6D046281D
:102A0000F4D047281AD19DE118E0632835D0642816
:102A100079D0652812D195E1702873D008DC672839
:102A2000F1D069286FD06E280DD06F2806D1B5E09F
:102A300073282CD0752875D0782874D05A461799E9
:102A400090476D1C75E1C4F30250022809D0032899
:102A50000DD0D9F8001004280DD00D6009F104093B
:102A600067E1D9F80010EA17C1E90052F6E7D9F892
:102A700000100D80F2E70D70F0E719F8041B8DF8D7
:102A8000001000208DF80100EA46012003E059F80B
:102A900004AB4FF0FF3061074FF0000102D40DE0AE
:102AA00008F101018846B9420FDA8045F8DB1AF8CF
:102AB00008100029F4D108E008F10101884681429C
:102AC000FADB1AF808100029F6D105985B46A0EB4E
:102AD000080721463846179A00F094FA284400EB7C
:102AE000080507E04DE029E10DE01AF8010B5A4610
:102AF00017999047B8F10108F7D25B46214638464E
:102B0000179A13E142E00A220092C4F302524FF0F6
:102B1000000A022A08D059F804CB032A4FEAEC71C4
:102B20000AD00DE029E02AE009F1070121F00702AF
:102B3000F2E802C1914609E00FFA8CFC4FEAEC7111
:102B4000042A03D14FFA8CFC4FEAEC71002907DA12
:102B50000A460021DCF1000C61EB02012D2202E0AB
:102B6000220504D52B228DF80420012203E0E20780
:102B700001D02022F7E7904659E00A2102E0102216
:102B80000DE010214FF0000A00910BE010224FF0F1
:102B9000000A44F004040827009203E008224FF0E2
:102BA000000A0092C4F30252022A05D059F804CB5D
:102BB0000021032A08D009E009F1070121F00702EA
:102BC000F2E802C1914605E01FFA8CFC042A01D10B
:102BD0000CF0FF0C4FF00008220728D5702806D013
:102BE000009B83F0100353EA0A0305D00EE0402255
:102BF0008DF80420012208E05CEA010206D03022B0
:102C00008DF804208DF8050002229046009B83F089
:102C1000080353EA0A030AD15CEA010201D1620700
:102C200005D530228DF804204FF001087F1E58286A
:102C300004D034A003900EA802900DE036A0F9E76E
:102C400053466046009AFDF714FB84460398825C65
:102C50000298401E029002705CEA0100F0D10298D6
:102C600006A9081A00F1200A600702D524F480346E
:102C700000E00127574502DDA7EB0A0000E0002035
:102C800000EB0A01009005984144401A0590E003CA
:102C900006D45B462146179A059800F0B3F905441F
:102CA000002706E001A85A46C05D179990476D1CA1
:102CB0007F1C4745F6DBE0030CD55B462146179A9F
:102CC000059800F09FF9054404E030205A46179912
:102CD00090476D1C0099481E00900029F5DC08E023
:102CE000029802995A460078491C02911799904718
:102CF0006D1CBAF10001AAF1010AF1DC65E10000E6
:102D000009280100303132333435363738396162C1
:102D10006364656600000000303132333435363785
:102D200038394142434445460000000000F058F95C
:102D30000544761C307800287FF4ECAD19B02846A5
:102D4000BDE8F08F620700D4062709F1070222F0E0
:102D5000070CFCE80223E14603F000485FEA080C98
:102D600002D00FF2702C0DE05FEA045C02D50FF286
:102D7000682C07E05FEAC47C02D00FF2602C01E00F
:102D8000AFF2700C4FF0FF3823F00043CDF850C085
:102D900065280CD006DC452809D046281DD04728D8
:102DA0003DD13DE0662818D067287ED138E000216B
:102DB000112F01DB112000E0781CCDE9000106A9EC
:102DC0000EA8FFF7DDFCDDE90F010E9A039100214B
:102DD000009207F1010A04914DE04FF00040009786
:102DE000CDE9011006A90EA8FFF7CAFCDDE90F0224
:102DF00003920E9B11990022DDF80CA0009304921F
:102E000011B9791C00EB010AB7EB0A0004D4C0F138
:102E1000FF3007F1010A0490AAEB0700019044E09B
:102E2000012F00DA01270021112F01DD112000E020
:102E30003846CDE9000106A90EA8FFF7A1FCDDE99F
:102E40000F010E9A0391002104910092BA462107C6
:102E50000CD40399514500DA8A46BAF1010F05DD19
:102E6000009AAAF10101515C302908D0B84202DA77
:102E700010F1040F06DA0121CDE9011015E0AAF1E5
:102E80000101E9E7002805DC049901440491AAEB5B
:102E9000000102E0411C514500DD8A460499401AB8
:102EA000401C01904FF000400290200704D401988C
:102EB000504501DBCDF8048000208DF84F000298CA
:102EC0000DF14F07B0F1004F25D02B200E90029846
:102ED0004FF0020800280CDA404202902D200E909C
:102EE00007E00A210298FDF7AEF93031029007F8A9
:102EF000011DB8F10001A8F10108F2DC02980028D8
:102F0000EFD1791E0E980870307800F0200040F064
:102F1000450007F8020D12A8C01B00F1070814981D
:102F2000007800B1012000EB0A01019801EBE0718B
:102F300005984144401A401E0590E00306D45B46C4
:102F40002146179A059800F05DF80544149800781A
:102F500018B15A46179990476D1CE00324D55B467B
:102F60002146179A059800F04DF805441CE0049896
:102F7000002807DBDDE90301884203DD0098405C9F
:102F8000179901E0179930205A469047049805F1A7
:102F90000105401C04900198401E019004D12E2090
:102FA0005A46179990476D1CBAF10001AAF1010A1F
:102FB000DDDC05E017F8010B5A46179990476D1CA8
:102FC000B8F10001A8F10108F4DC5B462146179A2C
:102FD0000598ABE62D0000002B000000200000004B
:102FE0002DE9F041044600251E461746880404D406
:102FF00005E039462020B0476D1C641EF9D52846EF
:10300000BDE8F0812DE9F041044600251E469046BA
:10301000C80301D5302700E02027880404D505E047
:1030200041463846B0476D1C641EF9D52846BDE8B8
:10303000F0810A68531C0B601070704710B504468D
:103040000420FEF709FB0148046010BD3000002099
:1030500070B5054600244FF47A7603E0304600F060
:1030600005F8641CAC42F9D370BD000070B54FF098
:10307000E024002265690949A36909684843A169F8
:103080009942FCD002D2A3EB010302E0A5EB0106BA
:1030900033441A440B468242F1D370BD3000002005
:1030A00004490A685206FCD5024AC1B2121D1160D9
:1030B000704700000038014001780E4AAA2909D063
:1030C0005A290DD0FF2904D18078FF2801D1012091
:1030D000507070478178AA29FBD1407810707047F2
:1030E000C1785A29FBD1817842780248401D115499
:1030F000704700003400002040F6AC573C46FDF716
:103100009BFFFEF712FFFEF797FDFEF77FFDFEF730
:10311000DDFDFEF7FBFDFEF715FEFEF72FFE4E4828
:103120000068C16841F01001C160FEF745FEFEF77E
:1031300025FF40F2E47A5046FDF792FB40F6B8389E
:1031400045464046FFF784FF40F2E57B5846FDF7D1
:1031500087FB2846FFF77CFF5FF0000505EB450085
:1031600000EBC500204400F57A7084B22046FFF7DA
:10317000A5FAC820FFF76CFF6D1C042DEEDB4FF4A1
:10318000FA794D464846FDF74BFDFDF7BBFB284657
:10319000FDF746FD2046FFF791FA2846FDF740FD72
:1031A000FDF7B0FB2846FDF73BFD2046FFF786FA0A
:1031B0002846FDF735FDFFF785FA022227A10020FA
:1031C000FEF771FE294E307801283DD15046FDF7BB
:1031D00047FB44464046FFF73BFF5846FDF740FBA0
:1031E0002046FFF735FF3C465FF0000505EB450044
:1031F00004EB800000F57A7084B22046FFF75EFA97
:10320000C820FFF725FF6D1C042DEFDB4D46484617
:10321000FDF706FDFDF776FB2846FDF701FD20468C
:10322000FFF74CFA2846FDF7FBFCFDF76BFB284641
:10323000FDF7F6FC2046FFF741FA2846FDF7F0FCC3
:10324000FFF740FA002030702046FFF725F8642091
:10325000FFF7FEFEB7E700002C0100205B7631355A
:103260005D5B6D31365D5B74355D000035000020BF
:103270000000000000000000010203040607080926
:103280000000000001020304A83200080000002032
:103290005800000060270008003300085800002094
:1032A000B0050000702700080000000001000000C9
:1032B00010000000000000000024F40000000000E6
:1032C0003F065B4F666D7D077F6F00BF86DBCFE6F5
:1032D000EDFD87FFEF00000000000000030000008C
:1032E00000002D2D2D000000702F790038310000D6
:1032F00000000000000000000000000000000000CE
:04000005080000ED02
:00000001FF
